:200000000C9462000C948A000C948A000C948A000C948A000C948A000C948A000C948A00B8
:200020000C948A000C948A000C948A000C948A000C948A000C948A000C948A000C948A0070
:200040000C94D2020C948A000C94A9050C94DB050C948A000C948A000C948A000C948A008C
:200060000C948A000C948A0000000008000201000003040700000000000000000102040804
:200080001020408001020408102001020408102004040404040404040202020202020303C0
:2000A000030303030000000023002600290000000000250028002B000000000024002700FF
:2000C0002A000B0611241FBECFEFD8E0DEBFCDBF11E0A0E0B1E0E8E1F0E102C005900D92A2
:2000E000A238B107D9F722E0A2E8B1E001C01D92AC33B207E1F710E0C4ECD0E004C02297D4
:20010000FE010E94EC07C23CD107C9F70E944F060C940A080C940000CF93C82F60918C0195
:200120008617F9F04AE050E08FE991E00E94830762E071E08FE991E00E949C064AE050E0B0
:200140006C2F8FE991E00E948A07C0938C010E941C03609388017093890180938A0190937D
:200160008B01CF910895EF92FF920F931F93CF93DF93811524E0920714F08FEF93E09C01F7
:2001800097FF02C020E030E069E171E0DB0112960D911C9113970217130744F1ED90FC9072
:2001A00011971496CD91DC911597442737FD4095542FC701AA2797FDA095BA2F281B390BAD
:2001C0004A0B5B0BFB01A681B781AC1BBD0B0E94E20798012E193F09442737FD4095542FD0
:2001E0000E94C307CE01820F931F08C0685F7F4FF1E069357F0751F684EF91E0DF91CF9134
:200200001F910F91FF90EF9008950E941C03609384017093850180938601909387018EE06E
:200220000E9486030E94B300909383018093820168E071E08FE991E00E949C0660918201C7
:20024000709183014AE050E08FE991E00E945E078091820190918301089526E040E052EC95
:2002600061E070E08FE991E00E94470561E08DE00E94CC0362E087E00E94CC0362E086E035
:200280000E94CC030E94220261E080E090E00C9484020F931F930E9432020E941302682F78
:2002A0008DE00E94050480918C01813009F44CC038F0833009F462C0843009F479C083C0A7
:2002C0000E941C03009188011091890120918A0130918B01601B710B820B930B60327E4419
:2002E0008105910520F00E94B00284E095C00E941C03009188011091890120918A013091C2
:200300008B01601B710B820B930B693171058105910508F485C087E00E943B04892B39F499
:200320000E94050161E00E94840281E075C086E00E943B04892B09F073C060E084EF91E0CB
:200340000E94840283E068C087E00E943B04892B09F442C00E941C030091880110918901E9
:2003600020918A0130918B01601B710B820B930B693171058105910568F52EC086E00E9453
:200380003B04892B09F44CC00E941C03009188011091890120918A0130918B01601B710BDB
:2003A000820B930B693171058105910598F438C087E00E943B04892B49F186E00E943B04E5
:2003C000892B21F12DC06BE071E08FE991E00E94A90621C061E01BC00E941C0300918401C0
:2003E000109185012091860130918701601B710B820B930B6A3F7105810591058CF00E94DA
:20040000050161E01F910F910C94840260E080E090E00E94840280E01F910F910C948C000B
:200420001F910F91089581E040918D0150918E0160918F0170919001452B462B472B09F43C
:2004400080E008950E94CC020E942803609391017093920180939301909394018091950141
:200460000C94C4020F931F9380918D0190918E01A0918F01B0919001892B8A2B8B2B59F474
:200480000E9428036093910170939201809393019093940136C00E9428030091910110918E
:2004A00092012091930130919401601B710B820B930B00918D0110918E0120918F0130919B
:2004C00090016017710782079307D8F09091000180919501992311F08F5F01C08150809398
:2004E00095010E94280360939101709392018093930190939401809195011F910F910C9488
:20050000C4021F910F9108950F931F93CF938C01C62F809195010E94C4020115110549F478
:2005200010928D0110928E0110928F011092900111C0980140E050E060E472E48FE090E0C2
:200540000E94C30720938D0130938E0140938F0150939001C0930001CF911F910F91089524
:2005600010928D0110928E0110928F01109290010C94C102F8949BB1937C892B8BB9789467
:20058000089580E00C94BA028770E82FF0E0E75AFE4F80810C94BA028AB18C638AB980E06C
:2005A0000C94BA021F920F920FB60F9211242F933F938F939F93AF93BF93809197019091AC
:2005C0009801A0919901B0919A013091960123E0230F2D3720F40196A11DB11D05C026E8E0
:2005E000230F0296A11DB11D209396018093970190939801A0939901B0939A0180919B019C
:2006000090919C01A0919D01B0919E010196A11DB11D80939B0190939C01A0939D01B093C7
:200620009E01BF91AF919F918F913F912F910F900FBE0F901F9018952FB7F8946091970149
:20064000709198018091990190919A012FBF08953FB7F89480919B0190919C01A0919D0152
:20066000B0919E0126B5A89B05C02F3F19F00196A11DB11D3FBF6627782F892F9A2F620FF9
:20068000711D811D911D42E0660F771F881F991F4A95D1F70895789484B5826084BD84B50F
:2006A000816084BD85B5826085BD85B5816085BDEEE6F0E0808181608083E1E8F0E01082A9
:2006C000808182608083808181608083E0E8F0E0808181608083E1EBF0E08081846080834E
:2006E000E0EBF0E0808181608083EAE7F0E080818460808380818260808380818160808326
:200700008081806880831092C10008958E3008F08E5087702091010190E4299F90011124AD
:20072000822B80937C0080917A00806480937A0080917A0086FDFCCF8091780020917900F5
:2007400090E0922B0895833081F028F4813099F08230A1F008958730A9F08830B9F0843010
:20076000D1F4809180008F7D03C0809180008F7780938000089584B58F7702C084B58F7D47
:2007800084BD08958091B0008F7703C08091B0008F7D8093B0000895CF93DF9390E0FC0183
:2007A000E458FF4F2491FC01E057FF4F8491882349F190E0880F991FFC01E854FF4FA59102
:2007C000B49182559F4FFC01C591D4919FB7611108C0F8948C91209582238C9388818223F7
:2007E0000AC0623051F4F8948C91322F309583238C938881822B888304C0F8948C91822BE9
:200800008C939FBFDF91CF9108950F931F93CF93DF931F92CDB7DEB7282F30E0F901E8595A
:20082000FF4F8491F901E458FF4F1491F901E057FF4F04910023C9F0882321F069830E94F2
:20084000A3036981E02FF0E0EE0FFF1FE255FF4FA591B4919FB7F8948C91611103C0109535
:20086000812301C0812B8C939FBF0F90DF91CF911F910F910895CF93DF93282F30E0F90159
:20088000E859FF4F8491F901E458FF4FD491F901E057FF4FC491CC2391F081110E94A303AD
:2008A000EC2FF0E0EE0FFF1FEC55FF4FA591B4912C912D2381E090E021F480E002C080E0B3
:2008C00090E0DF91CF910895FC01818D228D90E0805C9F4F821B91098F7399270895FC01B4
:2008E000918D828D981731F0828DE80FF11D858D90E008958FEF9FEF0895FC01918D828DF5
:20090000981761F0828DDF01A80FB11D5D968C91928D9F5F9F73928F90E008958FEF9FEFEA
:20092000089581E096E0892B49F080E090E0892B29F00E94010681110C9400000895FC0144
:20094000848DDF01A80FB11DA35ABF4F2C91848D90E001968F739927848FA689B7892C933E
:20096000A089B1898C9180648C93938D848D981306C00288F389E02D80818F7D8083089592
:20098000CF93DF93EC01888D8823C9F0EA89FB89808185FD05C0A889B9898C9186FD0FC0FC
:2009A0000FB607FCF5CF808185FFF2CFA889B9898C9185FFEDCFCE010E949F04E7CFDF915B
:2009C000CF910895CF92DF92FF920F931F93CF93DF931F92CDB7DEB76C0181E0D601589632
:2009E0008C9358975B969C915B975C968C915C97981307C05096ED91FC915197808185FD09
:200A00002EC0F601038D10E00F5F1F4F0F731127F02EF601848DF81211C00FB607FCF9CF4A
:200A2000D6015096ED91FC915197808185FFF1CFC60169830E949F046981EBCF838DE80F1E
:200A4000F11DE35AFF4F6083D6015B960C935B975296ED91FC915397808180620CC0D6015E
:200A60005696ED91FC91579760835096ED91FC91519780818064808381E090E00F90DF910D
:200A8000CF911F910F91FF90DF90CF900895BF92CF92DF92EF92FF92CF93DF93EC016A014B
:200AA0007B01B22EE889F98982E08083411581EE580761057105A1F060E079E08DE390E078
:200AC000A70196010E94A10721503109410951095695479537952795211580E1380798F091
:200AE000E889F989108260E874E88EE190E0A70196010E94A107215031094109510956952B
:200B0000479537952795EC85FD853083EE85FF852083188EEC89FD89B082EA89FB89808166
:200B200080618083EA89FB89808188608083EA89FB89808180688083EA89FB8980818F7D07
:200B40008083DF91CF91FF90EF90DF90CF90BF9008951F920F920FB60F9211242F938F9329
:200B60009F93EF93FF93E091AF01F091B0018081E091B501F091B60182FD12C09081809109
:200B8000B8018F5F8F732091B901821751F0E091B801F0E0E156FE4F958F8093B80101C038
:200BA0008081FF91EF919F918F912F910F900FBE0F901F9018951F920F920FB60F921124C0
:200BC0002F933F934F935F936F937F938F939F93AF93BF93EF93FF938FE991E00E949F046F
:200BE000FF91EF91BF91AF919F918F917F916F915F914F913F912F910F900FBE0F901F90DB
:200C000018958FE991E00E94640421E0892B09F420E0822F08951092A2011092A10188EE35
:200C200093E0A0E0B0E08093A3019093A401A093A501B093A60185E691E09093A00180933C
:200C40009F0185EC90E09093AC018093AB0184EC90E09093AE018093AD0180EC90E0909312
:200C6000B0018093AF0181EC90E09093B2018093B10182EC90E09093B4018093B30186EC99
:200C800090E09093B6018093B5011092B8011092B9011092BA011092BB01089508950E94F3
:200CA0004B030E944E060E942D01C1E9D4E00E9449012097E1F30E949104F9CFCF92DF927A
:200CC000EF92FF920F931F93CF93DF936C017A01EB01E60EF71E00E010E0CE15DF0561F015
:200CE0006991D601ED91FC910190F081E02DC6010995080F191FF1CFC801DF91CF911F914C
:200D00000F91FF90EF90DF90CF9008956115710581F0DB010D900020E9F7AD01415051094B
:200D2000461B570BDC01ED91FC910280F381E02D099480E090E008950C948606DC01ED9174
:200D4000FC910190F081E02D099461E771E00C9486060F931F93CF93DF93EC010E94860652
:200D60008C01CE010E94A506800F911FDF91CF911F910F9108958F929F92AF92BF92CF9289
:200D8000DF92EF92FF920F931F93CF93DF93CDB7DEB7A1970FB6F894DEBF0FBECDBF7C0193
:200DA000C42EE52FCB01D22E19A221E02D1510F02AE0D22E8E010F5D1F4F8D2C912CA12CAD
:200DC000B12C6C2D7E2FA50194010E94A1078C2DD29E80191124015011098A3014F4805D6A
:200DE00001C0895CF8018083211531054105510521F0C22EE32FCA01E4CFB801C7010E9495
:200E00008606A1960FB6F894DEBF0FBECDBFDF91CF911F910F91FF90EF90DF90CF90BF907D
:200E2000AF909F908F900895CF92DF92EF92FF920F931F93CF93DF93EC016A017B01211572
:200E4000310579F4E881F9810190F081E02D642FDF91CF911F910F91FF90EF90DF90CF906E
:200E600009942A303105E9F477FF1AC06DE20E949E068C0144275527BA014C195D096E0912
:200E80007F092AE0CE010E94BB06800F911FDF91CF911F910F91FF90EF90DF90CF900895B6
:200EA0002AE0B701A601CE01DF91CF911F910F91FF90EF90DF90CF900C94BB060F931F9349
:200EC000CF93DF93EC019A01AB01662757FD6095762F0E9414078C01CE010E94A506800F9A
:200EE000911FDF91CF911F910F9108952115310541F4DC01ED91FC910190F081E02D642F5A
:200F000009940C94BB069A01462F50E060E070E00C9476070F931F93CF93DF93EC019A0136
:200F2000462F50E060E070E00E9476078C01CE010E94A506800F911FDF91CF911F910F9155
:200F40000895A1E21A2EAA1BBB1BFD010DC0AA1FBB1FEE1FFF1FA217B307E407F50720F08B
:200F6000A21BB30BE40BF50B661F771F881F991F1A9469F760957095809590959B01AC0102
:200F8000BD01CF010895052E97FB1EF400940E94DA0757FD07D00E94A10707FC03D04EF4AB
:200FA0000C94DA0750954095309521953F4F4F4F5F4F089590958095709561957F4F8F4F23
:200FC0009F4F0895B7FF0C94F0070E94F007821B930B0895EE0FFF1F0590F491E02D0994E9
:200FE0000E94FB07A59F900DB49F900DA49F800D911D11240895A29FB001B39FC001A39FE5
:20100000700D811D1124911DB29F700D811D1124911D0895F894FFCF0101202D2D3E2000B2
:20102000533A00556E6B6E6F776E20737461746500000080000100020080000001020004E8
:20104000000001800104000A00800100020A00160000028002160030008002000330006975
:2010600000000380036900E5008003FF03E500F401040C08181030202400000000E2045E45
:1A1080000664047D046F04C0040D0A006E616E00696E66006F7666002E0026
:00000001FF
