:100000004CC05BC05AC059C058C057C056C055C03C
:1000100054C053C052C051C050C04FC0A1C04DC009
:100020004CC04BC04AC049C00000000000000000A6
:1000300000030400000000000000000000000000B9
:1000400000000000010204081020408001020408A2
:1000500010204080800102040810200102040840A2
:100060000404040404040404020202020202020260
:1000700003030303030303010101010300002C0038
:1000800023002600290000002E00250028002B0058
:1000900000002D00240027002A0011241FBECFEFEE
:1000A000D1E0DEBFCDBF21E0A0E0B1E001C01D92F4
:1000B000AA30B207E1F7CAD1D1C1A2CF61E082E094
:1000C00011D161E081E00ED161E083E00BD161E00C
:1000D0008FE008D161E089E049D161E08AE046D152
:1000E00061E089E0FFD061E08AE0FCD060E088E177
:1000F000F9D060E089E1F6D060E08AE1F3C089E1FF
:1001000075D161E0892B21F089E030D160E009C030
:1001100080910001811160E06093000189E026D1A7
:1001200061E08AE023D164E670E080E090E088D06E
:10013000E6CFE1E8F0E08081887F8083A0E8B0E04E
:100140008C9181608C938C918D7F8C938081877F43
:10015000808380818F7E8083808182608083089508
:100160001F920F920FB60F9211242F933F938F93EC
:100170009F93AF93BF938091020190910301A0914F
:100180000401B09105013091010126E0230F2D37C4
:1001900030F029E8230F0396A11DB11D03C002967C
:1001A000A11DB11D209301018093020190930301D1
:1001B000A0930401B093050180910601909107017D
:1001C000A0910801B09109010196A11DB11D809374
:1001D000060190930701A0930801B0930901BF9114
:1001E000AF919F918F913F912F910F900FBE0F90E4
:1001F0001F9018953FB7F8948091060190910701E0
:10020000A0910801B091090126B5A89B05C02F3F18
:1002100019F00196A11DB11D3FBFBA2FA92F982F2C
:100220008827820F911DA11DB11DBC01CD0143E0A6
:10023000660F771F881F991F4A95D1F70895089573
:10024000CF92DF92EF92FF92CF93DF936B017C010D
:10025000D1DFEB01C114D104E104F10479F0EFDF47
:10026000C9DF6C1B7D0B683E7340A0F381E0C81AA8
:10027000D108E108F108C851DC4FF2CFDF91CF91EE
:10028000FF90EF90DF90CF90089585B5887F8260D2
:1002900085BD7894EEE6F0E080818160808349DF5F
:1002A000EAE7F0E0808188778368808380818068D6
:1002B00080830895833049F4809180008F77809304
:1002C0008000809180008F7B0AC0843051F480913F
:1002D00080008F7D80938000809180008F7E80934E
:1002E00080000895CF93DF9387FF06C08F77883013
:1002F00010F48F5E01C08FEF90E0FC01EC5BFF4FCC
:100300002491FC01E05AFF4F8491882361F190E031
:10031000880F991FFC01E057FF4FC591D491FC0154
:10032000EA57FF4FA591B491611109C09FB7F894A6
:100330008881209582238883EC912E230BC0623024
:1003400061F49FB7F8943881822F80958323888346
:10035000EC912E2B2C939FBF06C08FB7F894E881A9
:100360002E2B28838FBFDF91CF9108950F931F937A
:10037000CF93DF931F92CDB7DEB787FF06C08F778D
:10038000883010F48F5E01C08FEF282F30E0F90124
:10039000E85DFF4F8491F901EC5BFF4F1491F90187
:1003A000E05AFF4F04910023D9F0882319F06983A4
:1003B00081DF6981E02FF0E0EE0FFF1FEA57FF4F6A
:1003C000A591B4918FB7611106C0F8949C91E12F6B
:1003D000E095E92303C0F894EC91E12BEC938FBFF7
:1003E0000F90DF91CF911F910F910895CF93DF93DD
:1003F00087FF06C08F77883010F48F5E01C08FEFC3
:10040000282F30E0F901E85DFF4F8491F901EC5BA2
:10041000FF4FD491F901E05AFF4FC491CC2389F0EA
:10042000811148DFEC2FF0E0EE0FFF1FE458FF4F83
:10043000A591B491EC91ED2381E090E021F480E06E
:1004400002C080E090E0DF91CF9108958091660036
:10045000809366001ADF32DE52DEFECFF894FFCFC3
:00000001FF
